:100000000C948F4A0C94AC4A0C94AC4A0C94AC4AB5
:100010000C94AC4A0C94AC4A0C94D64A0C94AC4A5E
:100020000C94AC4A0C94C24A0C94AC4A0C94B84A56
:100030000C94AC4A0C94AC4A0C94AC4A0C94AE4A66
:100040000C946B6E0C94AC4A0C94CC4A0C94AC4A55
:100050000C949D540C94AC4A0C94AC4A0C94AC4A4D
:100060000C94AC4A0C94AC4A0C94AC4A0C94AC4A38
:100070000C94AC4A0C94AC4A0C94AC4A6A6A676A19
:10008000596B646A616A5E6A5B6A596B596B596B3A
:10009000596B596B596B596B596B596B596B596B40
:1000A000596B596B596B596B596B596B596B596B30
:1000B000596B596B596B596B596B586A556A526A2F
:1000C000596B596B596B596B596B596B596B596B10
:1000D0004F6A4C6A496A466A596B436A406A3D6A8C
:1000E0003A6A376A596B346A316A2D6A2B6A296A0F
:1000F000256A236A216A146A4E6B516B516B516BEE
:10010000516B516B516B516B516B516B516B516B0F
:10011000516B516B516B516B466B496B496B496B22
:10012000496B496B496B496B496B496B496B496B2F
:10013000496B496B496B496B3E6B416B416B416B42
:10014000416B416B416B416B416B416B416B416B4F
:10015000416B416B416B416B366B396B396B396B62
:10016000396B396B396B396B396B396B396B396B6F
:10017000396B396B556B556B556B556B336B306BFE
:10018000556B2D6B2A6B276B246B216B1E6B1B6BC6
:10019000186B156B126B0F6B556B0C6B006BF26A67
:1001A000F26AF26AF26AF26AF26AF26AEF6AEC6A78
:1001B000E96AE66AE36AE06ADD6ADA6AD76AD46AFB
:1001C000D16ACE6ACB6AC86AC56AC26ABF6ABC6AAB
:1001D000B96AB66AB36AB06A556BAD6AAA6AA76AA9
:1001E000A46AA16A556B9E6A9B6A976A956A936A2C
:1001F0008F6A8D6A8B6A7E6A18F09FE518F09FE51A
:1002000018F09FE518F09FE518F09FE50000A0E1C9
:1002100014F09FE514F09FE52801F0BF4002F0BF05
:100220004402F0BF4802F0BF4C02F0BF5002F0BFE2
:100230005402F0BF0000000008009FE508209FE581
:10024000002082E01EFF2FE1F87DF0BF78640100FE
:1002500024009FE50010A0E3001080E5C01080E5B9
:1002600018109FE5081080E5FF10A0E3C41080E59A
:100270000010A0E3101080E51EFF2FE1000300F83E
:10028000FFFF0100000000EA1B0E00EA28008FE2D9
:10029000000C90E800A08AE001704AE200B08BE018
:1002A0000B005AE1140E000A0F00BAE814E04FE206
:1002B000010013E303F0471013FF2FE13C0100009E
:1002C0004C0100000000A0E30050A0E1B4009FE555
:1002D000000055E3CF10E003FF10E013001080E5AD
:1002E0000010E0E3041080E50E12E0E3081080E562
:1002F00094109F0594109F150C1080E590009FE5C9
:100300000110A0E3081080E588F09FE574009FE5E8
:10031000000055E3CE10E003FE10E013001080E56E
:1003200074109FE5FE1F91E870509FE5D1F021E326
:1003300000D045E2D2F021E301DC45E2D7F021E331
:1003400002DC45E2DBF021E302DC45E2D3F021E30D
:1003500002DC45E2130000EB3C0000EB10F021E36F
:100360000EDD45E20108A0E334109FE5242091E56D
:100370000F28C2E3002082E1242081E50220A0E3CF
:100380002C2081E5BEFFFFEA000000F8F01FF42FEB
:10039000F31FF42F000C00F81401F0BF2801F0BF88
:1003A000F8FFF1BF000100F81C009FE518109FE561
:1003B00018209FE5021041E014209FE5010050E164
:1003C00001208114FCFFFF1A1EFF2FE1F8FFF1BF8F
:1003D000881D0000D0D0ADDE00000000000000004D
:1003E000000000000000000000000000000000000D
:1003F0000000000000000000E479F0BFF8FFF1BF4A
:1004000004000000102100C00000000000000000F7
:1004100000000000000000000000000000000000DC
:1004200000000000000000000000000000000000CC
:1004300000000000000000007C1104EAAF4F04EA55
:10044000791104EA771104EA884F04EA781104EA82
:100450007EFFFFEAD24F04EA9A1104EA7847C046C9
:10046000991104EA7847C046711400EA711400EA51
:100470006F1400EA6FFFFFEAB83304EA9A1104EA46
:10048000911104EA7847C046901400EA7847C046C4
:10049000951104EA4B1400EACE1400EAE61400EACF
:1004A000041500EA953304EA933204EAD32904EAF6
:1004B000C54F04EA9D3004EA091E04EA973304EAB2
:1004C000EC1504EAA41304EA2E1504EA2B1404EA3A
:1004D000B41404EACC1504EA991704EAE31704EA11
:1004E000FC1000EAC51304EACF2D04EA3D1704EA24
:1004F000430E00EA0E0E00EA8C1404EA4D3E04EAB4
:10050000151704EAF41504EA972C04EAE33804EA20
:10051000841304EA661304EAA61304EA232D04EA0A
:10052000BB1404EA021204EA9F0D00EA981104EADF
:10053000F52B04EABA2B04EAF23F04EA3E1504EA7A
:100540005E2E04EAED2C04EAA72C04EAF73104EA53
:10055000033204EA7D1104EA852E04EA553004EAE8
:10056000C53E04EA0C0E00EAD42B04EA651704EA3F
:10057000D13804EA313904EAEA2C04EAC92B04EA46
:10058000CE3B04EAC60D00EA7E3B04EAD31104EA3E
:100590001E1804EA151504EA131804EACB1204EA3B
:1005A000081804EA3A1404EA993804EAAF3B04EA6A
:1005B000633904EA523904EAB61304EA400E00EA49
:1005C000BA1604EA0F1304EA451404EA661104EAB1
:1005D000F11204EA8C1204EADC3004EAD23504EAAF
:1005E000543104EA7847C04600C09FE51CFF2FE164
:1005F000A36D00C07847C04600C09FE51CFF2FE1F7
:10060000C16900C07847C04600C09FE51CFF2FE1CC
:10061000716B00C07847C04600C09FE51CFF2FE10A
:10062000F53EF0BF7847C04600C09FE51CFF2FE1B4
:10063000FB6D00C07847C04600C09FE51CFF2FE15E
:10064000656A00C07847C04600C09FE51CFF2FE1E7
:10065000316600C07847C04600C09FE51CFF2FE10F
:10066000916600C07847C04600C09FE51CFF2FE19F
:100670004D6A00C07847C04600C09FE51CFF2FE1CF
:100680004942F0BF7847C04600C09FE51CFF2FE1FC
:10069000C96900C07847C04600C09FE51CFF2FE134
:1006A000917500C07847C04600C09FE51CFF2FE150
:1006B000357600C07847C04600C09FE51CFF2FE19B
:1006C000A17400C07847C04600C09FE51CFF2FE121
:1006D000ED6900C07847C04600C09FE51CFF2FE1D0
:1006E000C17000C07847C04600C09FE51CFF2FE1E5
:1006F0001D6A00C07847C04600C09FE51CFF2FE17F
:10070000F97000C07847C04600C09FE51CFF2FE18C
:10071000316D00C07847C04600C09FE51CFF2FE147
:10072000217400C07847C04600C09FE51CFF2FE140
:10073000F942F0BF7847C04600C09FE51CFF2FE19B
:10074000B57200C07847C04600C09FE51CFF2FE18E
:10075000697600C07847C04600C09FE51CFF2FE1C6
:10076000436D00C07847C04600C09FE51CFF2FE1E5
:10077000476D00C07847C04600C09FE51CFF2FE1D1
:10078000257000C07847C04600C09FE51CFF2FE1E0
:100790004D6D00C07847C04600C09FE51CFF2FE1AB
:1007A0008D7200C07847C04600C09FE51CFF2FE156
:1007B0006D7300C07847C04600C09FE51CFF2FE165
:1007C000297200C07847C04600C09FE51CFF2FE19A
:1007D000C97100C07847C04600C09FE51CFF2FE1EB
:1007E000357300C07847C04600C09FE51CFF2FE16D
:1007F000BD7200C07847C04600C09FE51CFF2FE1D6
:10080000FD7200C07847C04600C09FE51CFF2FE185
:10081000ED6A00C07847C0463D1300EA7847C046FD
:1008200000C09FE51CFF2FE1F56400C07847C0467B
:1008300000C09FE51CFF2FE1657000C07847C046EF
:1008400000C09FE51CFF2FE1216E00C07847C04625
:1008500000C09FE51CFF2FE1516E00C07847C046E5
:1008600000C09FE51CFF2FE1517500C07847C046CE
:1008700000C09FE51CFF2FE1F56B00C07847C04624
:1008800000C09FE51CFF2FE14D6C00C07847C046BB
:100890001F1300EA7847C04600C09FE51CFF2FE108
:1008A000517200C07847C04600C09FE51CFF2FE191
:1008B000F17100C07847C04600C09FE51CFF2FE1E2
:1008C000D97300C07847C04600C09FE51CFF2FE1E8
:1008D000B542F0BF7847C04600C09FE51CFF2FE13E
:1008E000353EF0BF7847C04600C09FE51CFF2FE1B2
:1008F000A13DF0BF7847C04600C09FE51CFF2FE137
:10090000C96B00C07847C04600C09FE51CFF2FE1BF
:10091000C140F0BF7847C04600C09FE51CFF2FE1F3
:10092000C57600C07847C04600C09FE51CFF2FE198
:10093000517600C07847C046CC3A04EA7847C046B2
:100940003C3D04EA7847C04600C09FE51CFF2FE10C
:100950003D7600C07847C0468A3A04EA7847C046E8
:1009600000C09FE51CFF2FE1197100C07847C04609
:1009700000C09FE51CFF2FE15541F0BF7847C046FE
:1009800000C09FE51CFF2FE1ED6E00C07847C04618
:1009900000C09FE51CFF2FE1916F00C07847C04663
:1009A00000C09FE51CFF2FE1596500C07847C04695
:1009B000CB1C04EA7847C046613804EA00C09FE5D2
:1009C0001CFF2FE18F7D00C000C09FE51CFF2FE1C1
:1009D000117F00C000C09FE51CFF2FE1537F00C0C6
:1009E000280F00EAC04604EA1F1704EA4F2A04EA67
:1009F000802A04EA702A04EA412A04EAC54504EA86
:100A00007847C04600C09FE51CFF2FE13B7D00C03A
:100A10007847C04600C09FE51CFF2FE1BB7C00C0AB
:100A20007847C046743E04EA7847C046324104EA3B
:100A30007847C046B23D04EA7847C04600C09FE50B
:100A40001CFF2FE19F7F00C07847C0463C4104EA6D
:100A50007847C0467C4204EA7847C046944104EA9D
:100A60007847C046C94104EA7847C046CE4104EA07
:100A70007847C046E74104EA7847C046FF4104EAA8
:100A80007847C0468D3A04EA7847C0464D3004EABC
:100A90007847C04600C09FE51CFF2FE1BD7E00C027
:100AA0007847C04600C09FE51CFF2FE1398700C092
:100AB0007847C04600C09FE51CFF2FE18B7D00C03A
:100AC0007847C04600C09FE51CFF2FE1B58800C0F5
:100AD0007847C04600C09FE51CFF2FE12D8000C075
:100AE0007847C04600C09FE51CFF2FE18F7D00C006
:100AF0007847C04600C09FE51CFF2FE1737D00C012
:100B00007847C04600C09FE51CFF2FE1358100C03B
:100B10007847C04600C09FE51CFF2FE1D58200C08A
:100B20007847C04600C09FE51CFF2FE12D7D00C027
:100B30007847C04600C09FE51CFF2FE19D7C00C0A8
:100B40007847C04600C09FE51CFF2FE1FD7C00C038
:100B50007847C04600C09FE51CFF2FE1D37C00C052
:100B60007847C04600C09FE51CFF2FE1E57C00C030
:100B70007847C04600C09FE51CFF2FE1C37C00C042
:100B80007847C04600C09FE51CFF2FE1437D00C0B1
:100B90007847C04600C09FE51CFF2FE1698800C070
:100BA0007847C04600C09FE51CFF2FE1B37F00C01F
:100BB0007847C04600C09FE51CFF2FE1418800C078
:100BC0007847C04600C09FE51CFF2FE1CB7C00C0EA
:100BD0007847C04600C09FE51CFF2FE1537F00C04F
:100BE0007847C04600C09FE51CFF2FE1317D00C063
:100BF0007847C04600C09FE51CFF2FE1B97D00C0CB
:100C00007847C04600C09FE51CFF2FE18D8800C0DB
:100C10007847C04600C09FE51CFF2FE13B8700C01E
:100C20007847C04600C09FE51CFF2FE1CD7E00C085
:100C30007847C04600C09FE51CFF2FE1E97E00C059
:100C40007847C04600C09FE51CFF2FE1977E00C09B
:100C50007847C04600C09FE51CFF2FE1E98800C02F
:100C60007847C04600C09FE51CFF2FE13D8900C0CA
:100C70007847C04600C09FE51CFF2FE1117F00C0F0
:100C80007847C04600C09FE51CFF2FE19B7F00C056
:100C90007847C04600C09FE51CFF2FE1AB7F00C036
:100CA0007847C04600C09FE51CFF2FE1AF7F00C022
:100CB0007847C04600C09FE51CFF2FE1897C00C03B
:100CC0007847C046EC3C04EA7847C04600C09FE540
:100CD0001CFF2FE1038700C07847C04600C09FE596
:100CE0001CFF2FE1F18600C07847C04600C09FE599
:100CF0001CFF2FE1D17E00C07847C04600C09FE5B1
:100D00001CFF2FE11D8900C07847C046553004EA1A
:100D10007847C046343004EA7847C04600C09FE5B3
:100D20001CFF2FE1418700C07847C04600C09FE507
:100D30001CFF2FE13F8700C07847C04600C09FE5F9
:100D40001CFF2FE1458700C07847C04600C09FE5E3
:100D50001CFF2FE1F97F00C07847C046683704EADE
:100D60000A2204EA162004EA822104EA924504EAEF
:100D7000132204EA944504EAE51100EA152E04EA78
:100D8000CD2004EAC82004EAC32004EAB72004EA1C
:100D9000412E04EAAD2004EA002204EA6E2104EAAE
:100DA0007F2E04EA772E04EA113E04EA002004EACA
:100DB000332204EAA92004EA642104EACE2504EAE5
:100DC000242504EA742404EABF2004EA8A0E00EA17
:100DD000AD2204EAE02204EA413104EA791B04EA84
:100DE000470F04EA473104EABE2604EAFC2204EA7B
:100DF000F62204EAD32204EA630E00EAE62204EAB9
:100E0000D43704EA6F2F04EA872804EAD42604EAD8
:100E10002E2704EADA2604EACC2704EA020F00EAC5
:100E20001E0F00EAC10E00EA920E00EA572804EAFB
:100E3000B92704EAC82604EA432704EA5B2804EA3F
:100E4000E02704EA282804EA7847C046072804EA8D
:100E50007847C0461D2704EA7847C046082704EAB9
:100E60007847C046102804EA7847C0468A2704EA33
:100E70007847C046CD2704EA7847C046262804EACA
:100E80007847C046E42704EA7847C046DE2704EAEC
:100E90007847C0465F2704EA7847C046FD2604EA43
:100EA0009F2304EAC12304EAF82304EA242404EA81
:100EB000B62904EA352604EADD2B04EAA82B04EA65
:100EC0008D2B04EA1D2B04EAEE2A04EA492B04EADE
:100ED000032B04EA302B04EA102C04EA8B2C04EADE
:100EE000942C04EA3B2C04EAB02C04EAA42D04EA76
:100EF000822C04EA3D0E00EAD72C04EA7D2C04EA99
:100F0000802C04EA821100EA3E0E00EAE22F04EA95
:100F10001F3004EA5B2F04EA132F04EAEA3604EADE
:100F2000293604EA213604EA753004EA543004EA2A
:100F3000703904EA550F00EA543604EADF3004EA57
:100F4000F12E04EA202E04EACB1504EAA40D00EAEF
:100F5000090C00EA402F04EA262F04EA5A3604EA74
:100F60001C3704EA5C2204EAE02D04EA8C2D04EA32
:100F7000E60E00EA711B04EA1D3104EA933104EA2B
:100F8000873104EA313204EAAC3104EA7847C046DA
:100F90004A3204EA7847C0469D3104EA7847C046A1
:100FA0001E0E00EA7847C0467A3704EA7847C04602
:100FB000263104EA323904EA8F3204EA6F3204EA55
:100FC000473304EAA63204EA193304EA5B2C04EA44
:100FD000353404EAD90404EADE0404EAC73504EA35
:100FE0009D3404EA683504EA6C3404EA893504EA7D
:100FF000FF3304EA943304EA4F3304EA103404EA7A
:10100000CB3304EA673304EA023404EABA3304EA6D
:10101000623304EACA3504EA073504EA2D3404EAE7
:10102000CA3404EAF83304EA973304EA493304EA99
:10103000803304EA7B3604EAD32C04EA991A04EAE2
:10104000A91A04EA452C04EA632C04EA3D3604EAB2
:10105000A02E04EA9A2C04EAD72B04EAFF2C04EA17
:10106000262D04EA033604EA152D04EA942E04EA38
:10107000FC2C04EAFB3504EAC53504EA2F3D04EAFA
:10108000603804EA813804EAB83704EA383904EAF7
:10109000B03B04EA0A3B04EA7B3904EAD74404EA99
:1010A000860F00EA6C4C04EA403704EA673704EA2A
:1010B000113804EA233804EA0B3904EADF4404EA6D
:1010C000F84404EA8A4C04EA5E4C04EA793704EAFC
:1010D000844C04EA763804EA833A04EA353A04EAAE
:1010E000373B04EA923904EA393D04EA2F3904EA2D
:1010F000443D04EAB13904EA4B3A04EA6F3904EAA0
:10110000243904EA5B3B04EAB33804EA393904EAD7
:10111000FD3804EA453804EA263804EAE23B04EAEA
:10112000D63C04EA3E4C04EA173C04EADD3E04EAFD
:10113000254204EAC73D04EA8C1E04EA9B2504EA22
:10114000BE3E04EA493F04EAF23D04EAB03E04EA46
:10115000F33E04EA9C3E04EA223F04EA713E04EABC
:10116000034104EA7A4104EAF14104EABE4104EA97
:101170003D3D04EA4E3D04EAAE2504EA283E04EA79
:10118000934104EA394104EA863D04EABF1E04EAB9
:101190007847C04600C09FE51CFF2FE1151D01C028
:1011A0007847C04600C09FE51CFF2FE14B1E01C0E1
:1011B0007847C04600C09FE51CFF2FE11D1C01C001
:1011C0007847C04600C09FE51CFF2FE1451C01C0C9
:1011D0007847C04600C09FE51CFF2FE1E11801C021
:1011E0007847C04600C09FE51CFF2FE17D1E01C06F
:1011F0007847C04600C09FE51CFF2FE1D51E01C007
:101200007847C04600C09FE51CFF2FE1011C01C0CC
:101210007847C04600C09FE51CFF2FE1791C01C044
:101220007847C04600C09FE51CFF2FE1E11C01C0CC
:101230007847C04600C09FE51CFF2FE1A51B01C0F9
:101240007847C04600C09FE51CFF2FE1351901C05B
:101250007847C046343204EA7847C046410E00EA77
:101260007847C0465E0E00EA7847C046603204EA1E
:101270007847C04600C09FE51CFF2FE1ED1801C074
:101280007847C04600C09FE51CFF2FE1D11B01C07D
:101290007847C046A52E04EA7847C046B02E04EA37
:1012A0007847C046D23C04EA8F4304EA7847C046F8
:1012B000620E00EA7847C04600C09FE51CFF2FE1A0
:1012C000E51801C07847C046421100EA7847C04699
:1012D00000C09FE51CFF2FE1511901C07847C046AF
:1012E00000C09FE51CFF2FE1891A01C07847C04666
:1012F00000C09FE51CFF2FE11D1E01C07847C046BE
:1013000000C09FE51CFF2FE1551F01C07847C04674
:10131000911507EA7847C046701507EA7847C04636
:10132000151507EA7847C04600C09FE51CFF2FE16E
:10133000691F01C07847C046381507EA7847C0469C
:10134000A41507EA7847C04600C09FE51CFF2FE1BF
:101350004943F0BF7847C04600C09FE51CFF2FE11E
:101360000D7800C0B72E04EA290D00EAA52E04EA84
:101370002D4404EA7847C04600C09FE51CFF2FE1DA
:101380000D3E01C07847C04600C09FE51CFF2FE11D
:10139000613F01C07847C04600C09FE51CFF2FE1B8
:1013A000A93A01C07847C04600C09FE51CFF2FE165
:1013B000E551F0BF7847C04600C09FE51CFF2FE114
:1013C000F13401C07847C04600C09FE51CFF2FE103
:1013D0007B3701C07847C04600C09FE51CFF2FE166
:1013E000553801C07847C04600C09FE51CFF2FE17B
:1013F000653701C07847C04600C09FE51CFF2FE15C
:10140000F14CF0BF7847C04600C09FE51CFF2FE1BC
:10141000F12C01C07847C04600C09FE51CFF2FE1BA
:10142000092801C07847C04600C09FE51CFF2FE196
:10143000FF3701C07847C04600C09FE51CFF2FE181
:10144000054EF0BF7847C04600C09FE51CFF2FE166
:10145000CD3701C07847C04600C09FE51CFF2FE193
:10146000B92901C07847C04600C09FE51CFF2FE1A5
:10147000C13801C07847C04600C09FE51CFF2FE17E
:101480000F3901C07847C04600C09FE51CFF2FE11F
:10149000DD3801C07847C04600C09FE51CFF2FE142
:1014A000313401C07847C04600C09FE51CFF2FE1E2
:1014B000FD2F01C07847C04600C09FE51CFF2FE10B
:1014C000A12F01C07847C04600C09FE51CFF2FE157
:1014D0009D2601C07847C04600C09FE51CFF2FE154
:1014E0002B3901C07847C0469F1000EA7847C046B4
:1014F00000C09FE51CFF2FE10D52F0BF7847C046AA
:1015000000C09FE51CFF2FE12D2C01C07847C0468D
:1015100000C09FE51CFF2FE1113A01C07847C0468B
:1015200000C09FE51CFF2FE1052B01C07847C04696
:10153000C71904EA7847C046D31904EA7847C04679
:10154000B41904EA7847C04600C09FE51CFF2FE1AC
:10155000253A01C07847C04600C09FE51CFF2FE137
:101560001F3A01C07847C04600C09FE51CFF2FE12D
:101570005D3901C07847C04600C09FE51CFF2FE1E0
:101580005D2B01C07847C04600C09FE51CFF2FE1DE
:10159000853801C07847C04600C09FE51CFF2FE199
:1015A000973701C07847C04600C09FE51CFF2FE178
:1015B000C12C01C07847C04600C09FE51CFF2FE149
:1015C000493A01C07847C04600C09FE51CFF2FE1A3
:1015D000E53301C07847C046FD7604EA7847C04647
:1015E00000C09FE51CFF2FE16B3E01C07847C0465D
:1015F00000C09FE51CFF2FE14D3E01C07847C0466B
:10160000807704EA7847C0460D7704EA7847C046F9
:1016100000C09FE51CFF2FE1313801C07847C0466C
:10162000947804EA7847C04600C09FE51CFF2FE18C
:10163000ED3201C07847C04600C09FE51CFF2FE196
:10164000512D01C07847C04600C09FE51CFF2FE127
:10165000A54FF0BF7847C04600C09FE51CFF2FE1B3
:10166000C150F0BF7847C04600C09FE51CFF2FE186
:10167000B52801C07847C04600C09FE51CFF2FE198
:10168000E12401C07847C04600C09FE51CFF2FE160
:10169000F53C01C07847C0462F7904EA7847C04638
:1016A000CE7804EA7847C04600C09FE51CFF2FE1D2
:1016B000C53E01C07847C04600C09FE51CFF2FE132
:1016C000833E01C07847C04600C09FE51CFF2FE164
:1016D000D93D01C07847C04600C09FE51CFF2FE1FF
:1016E000693A01C07847C04600C09FE51CFF2FE162
:1016F000353C01C07847C04600C09FE51CFF2FE184
:10170000112301C07847C04600C09FE51CFF2FE1B0
:101710008D52F0BF7847C04600C09FE51CFF2FE107
:10172000E93E01C0020900EA2E4304EA1D4B04EA27
:10173000BB3A04EAEF2604EAEF2604EAB54A04EAD3
:10174000B54A04EA971D04EA971D04EA002F04EA4B
:10175000002F04EA7847C04600C09FE51CFF2FE138
:101760003D2101C07847C04600C09FE51CFF2FE126
:10177000572001C07847C04600C09FE51CFF2FE1FD
:101780000B2101C07847C04600C09FE51CFF2FE138
:10179000492001C07847C04600C09FE51CFF2FE1EB
:1017A000F11F01C07847C04600C09FE51CFF2FE134
:1017B000072101C07847C04600C09FE51CFF2FE10C
:1017C000E72001C07847C04600C09FE51CFF2FE11D
:1017D000D92001C07847C04600C09FE51CFF2FE11B
:1017E0006D2001C07847C04600C09FE51CFF2FE177
:1017F000352601C07847C04600C09FE51CFF2FE199
:10180000892501C07847C04600C09FE51CFF2FE135
:10181000B18400C07847C04600C09FE51CFF2FE19F
:10182000418500C07847C04600C09FE51CFF2FE1FE
:10183000B18000C07847C04600C09FE51CFF2FE183
:10184000118100C07847C04600C09FE51CFF2FE112
:10185000358600C07847C04600C09FE51CFF2FE1D9
:101860005D8300C07847C04600C09FE51CFF2FE1A4
:10187000658000C07847C04600C09FE51CFF2FE18F
:10188000E58500C07847C04600C09FE51CFF2FE1FA
:10189000618400C07847C04600C09FE51CFF2FE16F
:1018A000E98500C07847C04600C09FE51CFF2FE1D6
:1018B000458000C07847C04600C09FE51CFF2FE16F
:1018C000558000C07847C04600C09FE51CFF2FE14F
:1018D0004D8000C07847C04600C09FE51CFF2FE147
:1018E0005D8000C01D2E04EA282E04EAE22D04EAE1
:1018F000DB0F04EA091104EAD70F04EAC62E04EA52
:101900007847C04600C09FE51CFF2FE171D400C09E
:10191000B52E04EA462004EAA32004EA422004EAA1
:101920007847C04600C09FE51CFF2FE1B18600C08C
:101930007847C04600C09FE51CFF2FE1AD8700C07F
:101940007847C04600C09FE51CFF2FE1CD7F00C057
:101950007847C04600C09FE51CFF2FE181AE00C064
:101960007847C04600C09FE51CFF2FE1D9AE00C0FC
:10197000AB2504EA7847C04600C09FE51CFF2FE175
:10198000691B01C07847C04600C09FE51CFF2FE1DE
:10199000991D01C07847C04600C09FE51CFF2FE19C
:1019A0003F1901C08D3204EAB73204EA613204EA19
:1019B000941804EA951804EA901804EA7847C04697
:1019C00000C09FE51CFF2FE1E94EF0BF7847C046FD
:1019D00000C09FE51CFF2FE14D3401C07847C04691
:1019E00000C09FE51CFF2FE1AD2C01C07847C04629
:1019F00000C09FE51CFF2FE1652101C07847C0466C
:101A000000C09FE51CFF2FE1B52101C07847C0460B
:101A100000C09FE51CFF2FE1512101C07847C0465F
:101A200000C09FE51CFF2FE1851901C07847C04623
:101A300000C09FE51CFF2FE1DF1A01C07847C046B8
:101A400000C09FE51CFF2FE1291B01C07847C0465D
:101A500000C09FE51CFF2FE1211A01C0AD2305EA5C
:101A6000471A05EA896304EAB26A04EAE36804EA09
:101A70004B1A05EA3C0F00EA556304EA767804EA5B
:101A8000CB7304EA697104EA366304EA496104EA43
:101A9000366204EA816304EA627805EA17FF04EA21
:101AA0002C7505EAF96204EAE0FC04EAC09304EA52
:101AB000DF0E00EA00C09FE51CFF2FE11D8E05C070
:101AC000B51C04EA082604EA00C09FE51CFF2FE1CC
:101AD000D1D504C0CC4904EA00C09FE51CFF2FE12A
:101AE000156F03C0172E04EA00C09FE51CFF2FE10D
:101AF0008DD205C000C09FE51CFF2FE1B10405C0D9
:101B0000EF0700EA00C09FE51CFF2FE1F19D03C035
:101B10007847C04600C09FE51CFF2FE139D005C0C3
:101B20007847C04600C09FE51CFF2FE15D0205C05D
:101B30007847C04600C09FE51CFF2FE19D9B03C076
:101B4000E97305EAE2E704EA4F7704EA862405EA46
:101B5000008B04EA449204EA8D6A04EA736204EAA0
:101B6000496204EA7A7104EAB1B804EAC09304EA6B
:101B700027B904EADAE904EAE29804EA542205EA19
:101B80004A4105EAB3E404EADEB804EAC27804EAAA
:101B90002C9804EA80E904EABB9204EA58A504EA16
:101BA000E9B604EA1B2C05EA6DD204EA05A304EAAF
:101BB000DEA204EAD27804EAF07804EA8A2505EA8B
:101BC0005FB704EA59EA04EA5CB604EA8DE904EA7C
:101BD000337505EAD18604EA388C04EA138704EAEF
:101BE000248C04EA7C8B04EABA9104EA309104EA7A
:101BF000369104EA236204EA5F7704EADD6E04EAC0
:101C0000417704EA148504EAE27404EA427104EAC2
:101C10005B9104EA2F9104EAD39104EA9F8E04EACF
:101C20000D8E04EAD28C04EA738C04EA3B8D04EA3C
:101C3000248D04EA608E04EAB5F104EA71F904EA3D
:101C4000369804EAF18B04EA4F8D04EAA98804EA85
:101C5000519104EA162705EAFE8B04EA53A304EA2D
:101C6000D5C504EAD6C504EAE3E804EA23E904EAB0
:101C7000906804EADE7404EA4D7804EA247504EA04
:101C8000806804EA636804EA196004EAB16E05EA50
:101C9000CCA304EA5B7205EA7DAF04EA65E604EAD8
:101CA000244205EA5DC004EAAD5505EA484C05EA60
:101CB00020A804EA59D204EA052C05EAD79B04EAD5
:101CC000F4BB04EACEC204EA3A8204EAF3C704EAA7
:101CD000DFB004EA3CA304EAA7BF04EAED9804EAF3
:101CE000E4B604EA702305EA7847C04600C09FE5E1
:101CF0001CFF2FE1954703C07847C04600C09FE511
:101D00001CFF2FE1C14703C07847C04600C09FE5D4
:101D10001CFF2FE1794803C07847C04600C09FE50B
:101D20001CFF2FE1454A03C07847C04600C09FE52D
:101D30001CFF2FE16F7F03C07847C04600C09FE5BE
:101D40001CFF2FE1ED4A03C07847C04600C09FE565
:101D50001CFF2FE1814C03C07847C04600C09FE5BF
:101D60001CFF2FE1494703C07847C04600C09FE5EC
:101D70001CFF2FE1D94C03C07847C04600C09FE547
:101D80001CFF2FE1254B03C07847C04600C09FE5EC
:101D90001CFF2FE1477F03C07847C04600C09FE586
:101DA0001CFF2FE1414F03C07847C04600C09FE5AC
:101DB0001CFF2FE16D4F03C07847C04600C09FE570
:101DC0001CFF2FE1255003C07847C04600C09FE5A7
:101DD0001CFF2FE1F15103C07847C04600C09FE5CA
:101DE0001CFF2FE12BE604C07847C04600C09FE5EA
:101DF0001CFF2FE1995203C07847C04600C09FE501
:101E00001CFF2FE12D5403C07847C04600C09FE55A
:101E10001CFF2FE1F54E03C07847C04600C09FE588
:101E20001CFF2FE1855403C07847C04600C09FE5E2
:101E30001CFF2FE1D15203C07847C04600C09FE588
:101E40001CFF2FE103E604C07847C04600C09FE5B1
:101E50001CFF2FE11D6D03C07847C04600C09FE501
:101E60001CFF2FE1316B03C07847C04600C09FE5DF
:101E70001CFF2FE1716E03C07847C04600C09FE58C
:101E80001CFF2FE1156A03C07847C04600C09FE5DC
:101E90001CFF2FE1659A03C07847C04600C09FE54C
:101EA0001CFF2FE1896D03C07847C04600C09FE545
:101EB0001CFF2FE1CD6E03C07847C04600C09FE5F0
:101EC0001CFF2FE1516F03C07847C04600C09FE55B
:101ED0001CFF2FE1599B03C07847C04600C09FE517
:101EE0001CFF2FE1018203C07847C04600C09FE578
:101EF0001CFF2FE1E59A03C07847C04600C09FE56C
:101F00001CFF2FE1996F03C07847C04600C09FE5D2
:101F10001CFF2FE1317003C07847C04600C09FE529
:101F20001CFF2FE1FD7603C07847C04600C09FE547
:101F30001CFF2FE1257103C07847C04600C09FE514
:101F40001CFF2FE1317F03C07847C04600C09FE5EA
:101F50001CFF2FE1117303C07847C04600C09FE506
:101F60001CFF2FE1A97B03C07847C04600C09FE556
:101F70001CFF2FE1997C03C07847C04600C09FE555
:101F80001CFF2FE1359703C07847C04600C09FE58E
:101F90001CFF2FE19D8203C07847C04600C09FE52B
:101FA0001CFF2FE1D56703C07847C04600C09FE5FE
:101FB0001CFF2FE1218103C07847C04600C09FE588
:101FC0001CFF2FE1398103C07847C04600C09FE560
:101FD0001CFF2FE1E17F03C07847C04600C09FE5AA
:101FE0001CFF2FE1917F03C07847C04600C09FE5EA
:101FF0001CFF2FE1B18003C07847C04600C09FE5B9
:102000001CFF2FE10D4D03C07847C04600C09FE57F
:102010001CFF2FE1D14B03C07847C04600C09FE5AD
:102020001CFF2FE15D8003C07847C04600C09FE5DC
:102030001CFF2FE1498103C07847C04600C09FE5DF
:102040001CFF2FE11D6F03C07847C04600C09FE50D
:102050001CFF2FE1458A03C07847C04600C09FE5BA
:102060001CFF2FE1218903C07847C04600C09FE5CF
:102070001CFF2FE1B99603C07847C04600C09FE51A
:102080001CFF2FE1F98F03C07847C04600C09FE5D1
:102090001CFF2FE1399503C07847C04600C09FE57B
:1020A0001CFF2FE16D9503C07847C04600C09FE537
:1020B0001CFF2FE1E17C03C07847C04600C09FE5CC
:1020C0001CFF2FE1B17103C07847C04600C09FE5F7
:1020D0001CFF2FE16D7E03C07847C04600C09FE51E
:1020E0001CFF2FE1F17B03C07847C04600C09FE58D
:1020F0001CFF2FE1AF7C03C07847C04600C09FE5BE
:102100001CFF2FE1C58703C07847C04600C09FE58C
:102110001CFF2FE1B19503C07847C04600C09FE582
:102120001CFF2FE1299A03C07847C04600C09FE5F5
:102130001CFF2FE18D9503C07847C04600C09FE586
:102140001CFF2FE1DD7D03C07847C04600C09FE53E
:102150001CFF2FE1597203C07847C04600C09FE5BD
:102160001CFF2FE1C59503C07847C046300D00EA3B
:102170007847C04600C09FE51CFF2FE1DD7A03C011
:102180007847C04600C09FE51CFF2FE1E59603C0DD
:102190007847C04600C09FE51CFF2FE1619603C051
:1021A0007847C04600C09FE51CFF2FE1259A03C079
:1021B0007847C04600C09FE51CFF2FE1319103C066
:1021C0007847C04600C09FE51CFF2FE1C97F03C0D0
:1021D0007847C04600C09FE51CFF2FE1259B03C048
:1021E0007847C04600C09FE51CFF2FE1199603C049
:1021F0007847C04600C09FE51CFF2FE1A98103C0BE
:102200007847C04600C09FE51CFF2FE18D8F03C0BB
:102210007847C04600C09FE51CFF2FE1D99703C057
:102220007847C04600C09FE51CFF2FE1839503C09F
:102230007847C046B99604EA7847C04600C09FE593
:102240001CFF2FE19D8B03C07847C04600C09FE56F
:102250001CFF2FE1319E03C07847C04600C09FE5B8
:102260001CFF2FE17D9803C07847C04600C09FE562
:102270001CFF2FE19D9703C07847C04600C09FE533
:102280001CFF2FE14D8903C07847C04600C09FE581
:102290001CFF2FE1B19103C07847C04600C09FE505
:1022A0001CFF2FE1CD8803C07847C04600C09FE5E2
:1022B0001CFF2FE1AD9303C07847C04600C09FE5E7
:1022C0001CFF2FE10D8A03C07847C04600C09FE580
:1022D0001CFF2FE1DD8903C07847C04600C09FE5A1
:1022E0001CFF2FE1A98603C07847C04600C09FE5C8
:1022F0001CFF2FE15D9403C07847C04600C09FE5F6
:102300001CFF2FE1B19403C07847C04600C09FE591
:102310001CFF2FE1619303C07847C04600C09FE5D2
:102320001CFF2FE1218603C07847C04600C09FE50F
:102330001CFF2FE1E99303C07847C04600C09FE52A
:102340001CFF2FE1399203C07847C04600C09FE5CB
:102350001CFF2FE15D9603C07847C04600C09FE593
:102360001CFF2FE14D9103C07847C04600C09FE598
:102370001CFF2FE1E98203C07847C04600C09FE5FB
:102380001CFF2FE1518503C07847C04600C09FE580
:102390001CFF2FE1E78803C07847C04600C09FE5D7
:1023A0001CFF2FE1098C03C07847C04600C09FE5A1
:1023B0001CFF2FE1A18B03C07847C04600C09FE5FA
:1023C0001CFF2FE1158E03C07847C04600C09FE573
:1023D0001CFF2FE1159403C0C9E304EA139604EA35
:1023E0000CFD04EA4C2605EA1D2305EA54E804EA3C
:1023F00054EB04EA84EC04EA29F104EAAAED04EAC5
:10240000F4EE04EA84F004EA46EF04EA61F004EA38
:102410007DEF04EAA3F004EA37F004EAC4F904EA21
:102420009FF304EAD6F104EAFAF104EA0AEE04EAB8
:10243000D5F204EA0CF604EA46F504EAB5F204EA39
:102440006CF104EA20F204EAD4EE04EAF3F604EABA
:10245000EBEE04EA6AF704EAC2F404EA2DFA04EAAD
:1024600025FA04EAF4EE04EA677604EA970C00EA37
:10247000002105EA0F4205EAF02405EA449104EA46
:102480006B2105EACFE504EACEC304EA664605EA15
:10249000C34605EA8A4605EA202105EAAD7604EA44
:1024A000E21A05EA6D9A04EA85FD04EAFA6C05EA87
:1024B0005A4B05EA103C05EA7ADF04EAEB9D04EA90
:1024C000CBAA04EACDBA04EA10C204EA09C704EAB6
:1024D000E48004EAEAAF04EA609B04EAF9C004EA93
:1024E00094A704EA2FE804EA1E3905EA791205EAFE
:1024F0003F6D04EAC36404EAC26C04EA336F04EA81
:10250000786204EAFD6004EAC21F05EA1BA704EA38
:10251000272105EAA36C04EA9CAE04EA029304EACC
:10252000929204EA769104EAF99104EA179304EA94
:10253000C49104EACB2705EA8CB504EAC9E504EAAC
:10254000874805EA8DA404EA7BCE04EA272805EA39
:102550004D9804EA49B804EAAC7E04EABB5105EAA6
:10256000DD4605EA01A304EACACC04EA162605EA18
:10257000DD9604EAABB604EA0BBF04EA3BC404EA06
:10258000367D04EAEC4F05EA527005EAF34E05EA9F
:10259000B0AD04EA4CE404EA0B4005EAA19F04EA6A
:1025A00043BE04EA09C304EAEDC504EA418104EA32
:1025B000FAB204EAEC9C04EA817604EA889004EA20
:1025C000BD9004EA9D4105EAAC4105EA528204EA65
:1025D0008F1705EA9F1A05EA690205EA3D2105EA17
:1025E00031A104EAC07505EA7847C04600C09FE5FE
:1025F0001CFF2FE1D1D304C07847C04600C09FE53F
:102600001CFF2FE1E5D104C07847C04600C09FE51C
:102610001CFF2FE12DD504C07847C04600C09FE5C0
:102620001CFF2FE1C9D004C07847C04600C09FE519
:102630001CFF2FE1250105C07847C04600C09FE57B
:102640001CFF2FE13DD404C07847C04600C09FE581
:102650001CFF2FE189D504C07847C04600C09FE524
:102660001CFF2FE10DD604C07847C04600C09FE58F
:102670001CFF2FE1190205C07847C04600C09FE546
:102680001CFF2FE1BDE804C07847C04600C09FE5AD
:102690001CFF2FE1A50105C07847C04600C09FE59B
:1026A0001CFF2FE155D604C07847C04600C09FE507
:1026B0001CFF2FE1EDD604C07847C04600C09FE55F
:1026C0001CFF2FE1B9DD04C07847C04600C09FE57C
:1026D0001CFF2FE1E1D704C07847C04600C09FE54A
:1026E0001CFF2FE1EDE504C07847C04600C09FE520
:1026F0001CFF2FE1CDD904C07847C04600C09FE53C
:102700001CFF2FE165E204C07847C04600C09FE58A
:102710001CFF2FE155E304C07847C04600C09FE589
:102720001CFF2FE1F5FD04C07847C04600C09FE5BF
:102730001CFF2FE159E904C07847C04600C09FE55F
:102740001CFF2FE189CE04C07847C04600C09FE53A
:102750001CFF2FE1DDE704C07847C04600C09FE5BD
:102760001CFF2FE1F5E704C07847C04600C09FE595
:102770001CFF2FE19DE604C07847C04600C09FE5DE
:102780001CFF2FE14DE604C07847C04600C09FE51E
:102790001CFF2FE16DE704C07847C04600C09FE5ED
:1027A0001CFF2FE1B95403C07847C04600C09FE525
:1027B0001CFF2FE17D5303C07847C04600C09FE552
:1027C0001CFF2FE119E704C07847C04600C09FE511
:1027D0001CFF2FE105E804C07847C04600C09FE514
:1027E0001CFF2FE1D9D504C07847C04600C09FE543
:1027F0001CFF2FE101F104C07847C04600C09FE5EF
:102800001CFF2FE1DDEF04C07847C04600C09FE504
:102810001CFF2FE179FD04C07847C04600C09FE54A
:102820001CFF2FE1B5F604C07847C04600C09FE505
:102830001CFF2FE1F9FB04C07847C04600C09FE5AC
:102840001CFF2FE12DFC04C07847C04600C09FE567
:102850001CFF2FE19DE304C07847C04600C09FE500
:102860001CFF2FE16DD804C07847C04600C09FE52B
:102870001CFF2FE129E504C07847C04600C09FE552
:102880001CFF2FE1ADE204C07847C04600C09FE5C1
:102890001CFF2FE16BE304C07847C04600C09FE5F2
:1028A0001CFF2FE181EE04C07847C04600C09FE5C1
:1028B0001CFF2FE171FC04C07847C04600C09FE5B3
:1028C0001CFF2FE1E90005C07847C04600C09FE526
:1028D0001CFF2FE14DFC04C07847C04600C09FE5B7
:1028E0001CFF2FE199E404C07847C04600C09FE573
:1028F0001CFF2FE115D904C07847C04600C09FE5F2
:102900001CFF2FE185FC04C07847C04600C09FE54E
:102910001CFF2FE199E104C07847C04600C09FE545
:102920001CFF2FE1A5FD04C07847C04600C09FE50D
:102930001CFF2FE121FD04C07847C04600C09FE581
:102940001CFF2FE1E50005C07847C04600C09FE5A9
:102950001CFF2FE1EDF704C07847C04600C09FE59B
:102960001CFF2FE185E604C07847C04600C09FE504
:102970001CFF2FE1E50105C07847C04600C09FE578
:102980001CFF2FE1D9FC04C07847C04600C09FE57A
:102990001CFF2FE165E804C07847C04600C09FE5F2
:1029A0001CFF2FE149F604C07847C04600C09FE5F0
:1029B0001CFF2FE199FE04C07847C04600C09FE588
:1029C0001CFF2FE143FC04C07847C04600C09FE5D0
:1029D0001CFF2FE159F204C07847C04600C09FE5B4
:1029E0001CFF2FE1F10405C07847C04600C09FE5F9
:1029F0001CFF2FE13DFF04C07847C04600C09FE5A3
:102A00001CFF2FE15DFE04C07847C04600C09FE573
:102A10001CFF2FE109F004C07847C04600C09FE5C5
:102A20001CFF2FE171F804C07847C04600C09FE545
:102A30001CFF2FE189EF04C07847C04600C09FE526
:102A40001CFF2FE16DFA04C07847C04600C09FE527
:102A50001CFF2FE1C9F004C07847C04600C09FE5C5
:102A60001CFF2FE199F004C07847C04600C09FE5E5
:102A70001CFF2FE165ED04C07847C04600C09FE50C
:102A80001CFF2FE11DFB04C07847C04600C09FE536
:102A90001CFF2FE171FB04C07847C04600C09FE5D2
:102AA0001CFF2FE121FA04C07847C04600C09FE513
:102AB0001CFF2FE1DDEC04C07847C04600C09FE555
:102AC0001CFF2FE1A9FA04C07847C04600C09FE56B
:102AD0001CFF2FE1F9F804C07847C04600C09FE50D
:102AE0001CFF2FE11DFD04C07847C04600C09FE5D4
:102AF0001CFF2FE109F804C07847C04600C09FE5DD
:102B00001CFF2FE1A5E904C07847C04600C09FE53F
:102B10001CFF2FE10DEC04C07847C04600C09FE5C4
:102B20001CFF2FE1A3EF04C07847C04600C09FE51B
:102B30001CFF2FE1C5F204C07847C04600C09FE5E6
:102B40001CFF2FE15DF204C07847C04600C09FE53E
:102B50001CFF2FE1D1F404C07847C04600C09FE5B8
:102B60001CFF2FE1D5FA04C0A39304EA593F05EAFC
:102B7000F5E304EA18E404EA710005EADB8E04EAEE
:102B80003A2405EA7847C04600C09FE51CFF2FE1C4
:102B9000457B05C07847C04600C09FE51CFF2FE17C
:102BA0001F7A05C07847C04600C09FE51CFF2FE193
:102BB000957B05C07847C04600C09FE51CFF2FE10C
:102BC000AD7B05C07847C04600C09FE51CFF2FE1E4
:102BD0007D7B05C07847C04600C09FE51CFF2FE104
:102BE000B97805C07847C04600C09FE51CFF2FE1BB
:102BF00031A305C07847C04600C09FE51CFF2FE108
:102C000019A305C07847C04600C09FE51CFF2FE10F
:102C1000E97F05C07847C04600C09FE51CFF2FE153
:102C2000C57B05C07847C04600C09FE51CFF2FE16B
:102C3000D9CB05C07847C04600C09FE51CFF2FE1F7
:102C400015CC05C07847C04600C09FE51CFF2FE1AA
:102C5000DDCC05C07847C04600C09FE51CFF2FE1D2
:102C60005DCD05C07847C04600C09FE51CFF2FE141
:102C700011CF05C07847C04600C09FE51CFF2FE17B
:102C80008DCD05C07847C04600C09FE51CFF2FE1F1
:102C90006F8105C07847C04600C09FE51CFF2FE14B
:102CA000197905C07847C04600C09FE51CFF2FE199
:102CB000597A05C07847C04600C09FE51CFF2FE148
:102CC000817905C07847C04600C09FE51CFF2FE111
:102CD0005D8705C07847C04600C09FE51CFF2FE117
:102CE000718505C07847C04600C09FE51CFF2FE1F5
:102CF000F1A505C07847C04600C09FE51CFF2FE145
:102D0000B98805C07847C04600C09FE51CFF2FE189
:102D1000F18905C07847C04600C09FE51CFF2FE140
:102D2000398405C07847C04600C09FE51CFF2FE1ED
:102D3000C5C605C07847C04600C09FE51CFF2FE10F
:102D4000C98705C07847C04600C09FE51CFF2FE13A
:102D5000158905C07847C0462B7404EA7847C046F9
:102D60000C4405EA7847C04600C09FE51CFF2FE1F0
:102D7000598E05C07847C04600C09FE51CFF2FE173
:102D8000B9C705C07847C04600C09FE51CFF2FE1CA
:102D900089A405C07847C04600C09FE51CFF2FE10D
:102DA00045C705C07847C04600C09FE51CFF2FE11E
:102DB000A18E05C07847C04600C09FE51CFF2FE1EB
:102DC000599305C07847C04600C09FE51CFF2FE11E
:102DD0006D8F05C07847C04600C09FE51CFF2FE1FE
:102DE0005D9C05C07847C04600C09FE51CFF2FE1F1
:102DF000D99105C07847C04600C09FE51CFF2FE170
:102E0000C99805C07847C04600C09FE51CFF2FE168
:102E10000D8F05C07847C04600C09FE51CFF2FE11D
:102E2000C99905C07847C04600C09FE51CFF2FE147
:102E300079C305C07847C04600C09FE51CFF2FE15D
:102E400041A505C07847C04600C09FE51CFF2FE1A3
:102E5000DFC205C07847C04600C09FE51CFF2FE1D8
:102E6000337A05C07847C04600C09FE51CFF2FE1BC
:102E7000C9C805C07847C04600C09FE51CFF2FE1C8
:102E8000D7CB05C07847C04600C09FE51CFF2FE1A7
:102E90000DA005C07847C04600C09FE51CFF2FE18C
:102EA0007DA205C07847C04600C09FE51CFF2FE10A
:102EB000AD9E05C07847C04600C09FE51CFF2FE1CE
:102EC000759C05C07847C04600C09FE51CFF2FE1F8
:102ED00041A305C07847C04600C09FE51CFF2FE115
:102EE0007D9D05C07847C04600C09FE51CFF2FE1CF
:102EF00005A405C07847C04600C09FE51CFF2FE130
:102F00001D7505C07847C04600C09FE51CFF2FE136
:102F1000598005C07847C04600C09FE51CFF2FE1DF
:102F2000B59D05C07847C04600C09FE51CFF2FE156
:102F3000197D05C07847C04600C09FE51CFF2FE102
:102F4000B97505C07847C04600C09FE51CFF2FE15A
:102F5000258E05C07847C04600C09FE51CFF2FE1C5
:102F60008DA505C07847C04600C09FE51CFF2FE136
:102F700055C105C07847C04600C09FE51CFF2FE142
:102F800089C605C07847C04600C09FE51CFF2FE1F9
:102F90008DAF05C07847C04600C09FE51CFF2FE1FC
:102FA000FFC205C07847C04600C09FE51CFF2FE167
:102FB00045BA05C07847C04600C09FE51CFF2FE119
:102FC00011C105C07847C04600C09FE51CFF2FE136
:102FD00041B105C07847C04600C09FE51CFF2FE106
:102FE00075C005C07847C04600C09FE51CFF2FE1B3
:102FF000119A05C07847C04600C09FE51CFF2FE12D
:103000000D9005C07847C04600C09FE51CFF2FE12A
:103010009D9B05C07847C04600C09FE51CFF2FE17F
:103020001D9905C07847C04600C09FE51CFF2FE1F1
:10303000DF9905C07847C04600C09FE51CFF2FE11F
:1030400099AD05C07847C04600C09FE51CFF2FE141
:1030500031C105C07847C04600C09FE51CFF2FE185
:103060000D9B05C07847C04600C09FE51CFF2FE1BF
:10307000B59205C07847C04600C09FE51CFF2FE110
:1030800069C105C07847C04600C09FE51CFF2FE11D
:103090009D8105C07847C04600C09FE51CFF2FE119
:1030A000BDAE05C07847C04600C09FE51CFF2FE1BC
:1030B000B96905C07847C04600C09FE51CFF2FE1F5
:1030C00099BB05C07847C04600C09FE51CFF2FE1B3
:1030D000FD9705C07847C04600C09FE51CFF2FE163
:1030E00029C305C07847C04600C09FE51CFF2FE1FB
:1030F0003DC605C07847C04600C09FE51CFF2FE1D4
:1031000065C205C07847C04600C09FE51CFF2FE19F
:103110007DBB05C07847C04600C09FE51CFF2FE17E
:10312000359E05C07847C04600C09FE51CFF2FE1D3
:1031300085C705C07847C04600C09FE51CFF2FE14A
:10314000BDC105C07847C04600C09FE51CFF2FE108
:10315000B9AF05C07847C04600C09FE51CFF2FE10E
:1031600009A405C07847C04600C09FE51CFF2FE1B9
:10317000D9B905C07847C04600C09FE51CFF2FE1C4
:103180001DC405C07847C04600C09FE51CFF2FE165
:1031900027C105C07847C04600C09FE51CFF2FE14E
:1031A000F9C705C07847C04600C09FE51CFF2FE166
:1031B000ED6905C07847C04600C09FE51CFF2FE1C0
:1031C000ADCB05C07847C04600C09FE51CFF2FE18E
:1031D00099B205C07847C04600C09FE51CFF2FE1AB
:1031E000D5D205C07847C04600C09FE51CFF2FE13F
:1031F000C1C405C07847C04600C09FE51CFF2FE151
:10320000E1C305C07847C04600C09FE51CFF2FE121
:10321000E1CA05C07847C04600C09FE51CFF2FE10A
:103220004DB005C07847C04600C09FE51CFF2FE1A8
:1032300099BC05C07847C04600C09FE51CFF2FE140
:10324000A1AE05C07847C04600C09FE51CFF2FE136
:10325000E9BE05C07847C04600C09FE51CFF2FE1CE
:1032600009B105C07847C04600C09FE51CFF2FE1AB
:10327000D9B005C07847C04600C09FE51CFF2FE1CC
:103280007DAC05C07847C04600C09FE51CFF2FE11C
:1032900099BF05C07847C04600C09FE51CFF2FE1DD
:1032A000EDBF05C07847C04600C09FE51CFF2FE179
:1032B0009DBE05C07847C04600C09FE51CFF2FE1BA
:1032C000F5AB05C07847C04600C09FE51CFF2FE165
:1032D00025BF05C07847C04600C09FE51CFF2FE111
:1032E00041BD05C07847C04600C09FE51CFF2FE1E7
:1032F00001C205C07847C04600C09FE51CFF2FE112
:10330000B1A705C07847C04600C09FE51CFF2FE16C
:1033100035BC05C07847C04600C09FE51CFF2FE1C3
:10332000E9A805C07847C04600C09FE51CFF2FE113
:1033300025AB05C07847C04600C09FE51CFF2FE1C4
:1033400051AF05C07847C04600C09FE51CFF2FE184
:10335000F9B505C07847C04600C09FE51CFF2FE1C6
:1033600091B505C07847C04600C09FE51CFF2FE11E
:1033700055B805C07847C04600C09FE51CFF2FE147
:1033800051BF05C0707E04EA376404EAB43E05EA22
:10339000FA6804EA876604EA601C05EA9EB004EA5B
:1033A000956404EAD38404EA928104EAC18304EABE
:1033B000458004EADE8304EAB58504EA098604EA66
:1033C000408204EAFA8004EAF48304EAC18104EA50
:1033D000468304EA078504EAAE8404EA408504EAE9
:1033E000D18304EA018504EA838004EA9C8504EA27
:1033F000698404EA648104EA108204EA6D8504EABF
:103400004C8004EA418004EA278504EA8A8104EAC0
:10341000428104EA138404EA776204EA676204EAF8
:103420002DEB04EAAAF504EA85F504EA7FED04EA47
:10343000B1EA04EAB3EC04EA63F604EA88EA04EACF
:103440007847C04600C09FE51CFF2FE18DD205C024
:103450007847C04600C09FE51CFF2FE135D005C06E
:103460007847C04600C09FE51CFF2FE1B10405C0AE
:103470007847C04600C09FE51CFF2FE1590205C0F8
:103480007847C04600C09FE51CFF2FE1F19D03C0B7
:103490007847C04600C09FE51CFF2FE1999B03C001
:1034A000770D07EA960D07EA7D0D07EA630D07EA37
:1034B000750D07EAB40F07EA770E07EAD60D07EA9B
:1034C000130F07EAC60E07EA260E07EA620F07EA9D
:1034D0000F1007EA001007EA7D1007EA531007EA09
:1034E000111107EA661007EA8A1007EAC61007EA10
:1034F000400D07EAFD1007EA2C1007EABC0F07EAA7
:10350000D70F07EA00000000E07D0CC0FC7F0C0034
:1035100003000000070000000000000000000000A1
:103520000300000000000000000000004401000053
:103530000000000000000000070000000100000083
:10354000010000000000000000000000000000007A
:103550000000000000000000030000000700000061
:103560000000000000000000030000000000000058
:10357000000000001B000000000000000000000030
:103580000700000001000000000000000000000033
:10359000000000000000000000000000000000002B
:1035A0000300000007000000000000000000000011
:1035B0000300000000000000000000000700000001
:1035C00000000000000000000700000000000000F4
:1035D00001000000000000000000000000000000EA
:1035E00000000000000000000200000007000000D2
:1035F00001000000010000000000000000000000C9
:1036000000000000060000000100000000000000B3
:1036100007000000000000000000000000000000A3
:10362000000000000000000000000000000000009A
:1036300061D308320000000000000000000000001C
:10364000CE0C0000CE0C00000A0000001F0000009D
:103650000000000000000000010000000500000064
:10366000A4000000000000007C000E000501000026
:103670000000000000000000000000005F5F444107
:1036800054455F5F205F5F54494D455F5F00000018
:103690000200000001000000060000008434F0BFBA
:1036A000000000000000000000000000000000001A
:1036B0000000000000000000000000000001000009
:1036C00000000000000000000000000000000000FA
:1036D00000000000020000000000000000000100E7
:1036E00000000100010000000B006600C434F0BFC0
:1036F00020000000000000000B0067000000000038
:1037000002000000010000000B006800E434F0BF7C
:1037100002000000000000000B0069000000000033
:1037200006000000FFFFFFFF000000000000000097
:1037300000000000010000000B006A00EA34F0BF46
:1037400002000000000000000B006B000000000001
:1037500002000000FFFFFFFF00000000000000006B
:1037600000000000010000000B006C00E634F0BF18
:1037700002000000000000000B006D0000000000CF
:1037800004000000FFFFFFFF000000000000000039
:1037900000000000010000000B006C00E834F0BFE6
:1037A00002000000000000000B006D00000000009F
:1037B00004000000FFFFFFFF000000000000000009
:1037C00000000000000000000000000000000000F9
:1037D00000000000000000000000000000000000E9
:1037E000000000005C02F0BF0000000000000000CC
:1037F000149701C00000000000000000000000005D
:1038000000000000000000000000000000000000B8
:1038100000000000000000000000000000000000A8
:103820000000000000000000000000000000000098
:103830000000000000000000000000000000000088
:103AC0000000000070402DE9045090E50040A0E1A6
:103AD0000500A0E1F11EA0E3F4F7FFEB0400A0E174
:103AE000045084E559F8FFEB0400A0E159F8FFEB1E
:103AF0007040BDE80000A0E31EFF2FE1A4FC03EA34
:103B00007847C04600C09FE51CFF2FE1BB2800C0DE
:103B10007847C046DCFB03EA1DFB03EA7847C04652
:103B200000C09FE51CFF2FE1C92300C07847C046B5
:103B3000D60400EA6C009FE510402DE9280090E5CE
:103B4000020C10E30900A0130200001A010B10E39D
:103B50000300000A0A00A0E352F2FFEB1040BDE8A8
:103B60001EFF2FE1010C10E30300000A0800A0E390
:103B70004DF2FFEB1040BDE81EFF2FE1020010E305
:103B80000300000A0100A0E348F2FFEB1040BDE88B
:103B90001EFF2FE1010010E30000A01344F2FF1B01
:103BA0001040BDE81EFF2FE1000300F8FE432DE9A1
:103BB0000170A0E19C12D0E50280A0E19D22D0E539
:103BC0000360A0E10030A0E30E008DE80050A0E10A
:103BD0000400D6E50020D6E50310D6E538F2FFEB69
:103BE0000040B0E12700001A0630A0E10820A0E163
:103BF0000710A0E10500A0E13BF2FFEB0040B0E1BF
:103C00002000001A0400D6E5020050E31500001A57
:103C10009C12D5E59D22D5E50030A0E30E008DE88D
:103C20000020D6E50310D6E52500D5E50130A0E358
:103C300023F2FFEB0040B0E11200001A0320D6E5AA
:103C40002810D5E50500A0E120F2FFEB0040B0E12F
:103C50000C00001A0500A0E1690000EB0048A0E19B
:103C60002448A0E1070000EA380095E5000050E391
:103C7000F1FFFF1A0500A0E12D0000EB0040A0E1DC
:103C80000500A0E11BF2FFEB0430A0E10620A0E15B
:103C90000B10A0E30700A0E10EF2FFEBFE43BDE82E
:103CA0001EFF2FE130402DE914D04DE20050A0E37B
:103CB0000040A0E108508DE5740090E5000050E35D
:103CC0000110A0130400A011745084150BF2FF1B07
:103CD000700094E5000050E370508415020000EA83
:103CE00010109DE50400A0E105F2FFEB04308DE229
:103CF00000308DE50C308DE208208DE210108DE251
:103D0000900084E2FFF1FFEB000050E3F3FFFF0AB5
:103D10000800DDE5000050E36C209415BA16D411BC
:103D20000400A011EEF1FF1B14D08DE23040BDE87D
:103D30001EFF2FE170402DE90040A0E10C0090E54E
:103D40000050A0E3000050E30F00000A380094E5A3
:103D5000000050E30C00001A0000A0E33B0200EB5F
:103D6000900084E2ECF1FFEB000050E30000A0E3E0
:103D70000C0084E51C509F15200084E50200001A09
:103D80006400D4E5E5F1FFEB0050A0E10500A0E1FF
:103D90007040BDE81EFF2FE16180000070402DE9FA
:103DA00058509FE50040A0E3000095E5900080E2B8
:103DB000DFF1FFEB030010E3001095150120A0E3F5
:103DC0000140A01370208115200010E30400000AB8
:103DD000000095E50010D0E5020051E37420800555
:103DE000010000EA000054E30100000A0100A0E322
:103DF000D0F1FFEB7040BDE80100A0E31EFF2FE112
:103E0000C034F0BF70402DE90050A0E30040A0E1B5
:103E1000205080E50C0090E5000050E31600001AE9
:103E20000020A0E33010E0E30400A0E1CEF1FFEBBE
:103E30000400A0E33401C4E5900084E2CDF1FFEB7F
:103E40000050B0E10300001A6400D4E5B3F1FFEBC9
:103E5000000050E31600001A0100A0E30C0084E506
:103E6000100094E5000050E3F418D4010120A003F1
:103E70000400A001BCF1FF0B090000EA010050E3BF
:103E80000700001A380094E5000050E30400000A1F
:103E900024009FE5000090E5900080E2A4F1FFEB94
:103EA0001D5000E20100A0E3E80100EB0500B0E1D5
:103EB00008009F157040BDE81EFF2FE1C034F0BF21
:103EC0006180000070402DE90150A0E10B0052E339
:103ED0000210A0E10360A0E10040A0E11500000A8B
:103EE0000D0051E31700000A110051E31100000A10
:103EF000860051E31800001A0610A0E10400A0E1BA
:103F0000B0F1FFEB2700D4E5020050E300005013AE
:103F10000400001A0400A0E1B9FFFFEB000050E329
:103F200048009F1563F1FF1B0200A0E30000C4E5F9
:103F30007040BDE81EFF2FE134309FE50620A0E170
:103F40000500A0E163F1FFEB0620A0E10510A0E170
:103F50000400A0E19CF1FFEBF4FFFFEA14309FE5C1
:103F60000620A0E10500A0E15AF1FFEBEFFFFFEA18
:103F700061800000224000002640000010402DE932
:103F80000100A0E394F1FFEB0100A0E393F1FFEB4C
:103F90001040BDE81EFF2FE1F8B50400886821211C
:103FA00000880902651800271600002801D01B4E62
:103FB00000E0EF701A48201846801A482018007C4C
:103FC00000280AD0012825D12878002803D1FFF73E
:103FD000ADFD002805D1277307E02000FCF782FB28
:103FE00017E011490120207348702000FCF782FB84
:103FF0000C49200084398030FCF784FB8320800149
:104000002018476387636878002803D12000FCF7F5
:1040100081FB06003000F8BC08BC18470C410000CA
:1040200060310000E0200000E079F0BFF8B5040046
:1040300088682121008809026618002801D0274AD3
:1040400001E00120F0702648201802802448283022
:1040500021182000002300F04BFA05002148002120
:10406000017021482718797C0800284303D12000DB
:10407000FCF760FB0500787C012805D1002D08D1F4
:104080002000FCF75FFB0500002D02D10420207307
:104090001FE0387C002806D001281AD1307800288B
:1040A00006D0002005E02000FCF71CFB050010E016
:1040B000012020732000FCF71DFB0B4920008439F0
:1040C0008030FCF71FFB83218901002061184863C1
:1040D00088632800F8BC08BC184700000B410000AA
:1040E00060310000E079F0BFE02000006D4BF7B5D3
:1040F0009D446D4B00206B44D860586A170080685F
:104100009860196A69480818D861407C012806D06F
:104110006748654B2C339D44F0BC08BC1847624B84
:104120006B44186A80309861FCF714FB5E4BC52223
:104130006B441B6A92019D18EA6A01263100824293
:1041400000D80021584B21206B441A6A0002141831
:10415000A1719869FCF706FB01210903884201DA85
:10416000012000E00020504B6B441861E1790120F0
:1041700000290CD1E178002909D06178002906D105
:10418000A179002903D1617A002900D10020464B92
:1041900083216B441A6A8901521800285A6104D09D
:1041A000203303CBFCF7E6FA29E0E86B431C05D08B
:1041B0003D4B6B445A69916B814221D23A4BE96A7B
:1041C0006B449A6902A8FCF7DDFA374BE86A6B4446
:1041D0005A69916B09189163196A8A6800922E6B6B
:1041E0000F6E02009968330002A8FFF789FC0028CF
:1041F00016D02D4B6B44586A196AFCF7CBFA0700AE
:10420000002F16D1284B6B44D869007C00280AD0B7
:1042100001280ED1186900280BD00120D86008E0D1
:104220002348401D04E0204B6B44186AFCF7BAFA9F
:104230000700E86B431C08D01B4B01216B445A69F3
:10424000926B824211D200210FE0174B6B449869A8
:10425000FCF780FA22780021002A02D16279002A34
:1042600003D0EA6A824200D901216172607A002893
:104270000CD0104C2078002808D10B4B6B44186AE6
:10428000FCF720FA07000126267008E0064B6B4475
:10429000D868002803D0186AFCF70CFA0700380029
:1042A00037E70000E0F7FFFF00080000E020000013
:1042B00001810000E079F0BFF7B504008868212192
:1042C00000880902671800260025002802D01B4834
:1042D000029000E0BE701A4802992018C180FFF7D2
:1042E00025FC002800D101257878164F002803D03E
:1042F0000120207378700BE0002D04D12000FCF722
:1043000009FA0290F4E72000FCF704FA0290267301
:104310000D48201886832000FCF7ECF90A4920009C
:1043200084398030FCF7EEF9832080012018466341
:1043300086630298FEBC08BC184700000E410000CE
:1043400060310000E079F0BFE020000070B50600A9
:104350000C000025FCF7EEFA0023E15E0423E05E8A
:10436000762813D008DC0E2810D012280ED013287F
:104370000CD016280DD109E0782807D09A2803D050
:104380009C2801D09E2804D1294C36E0284C641E7C
:1043900033E03100FCF746F9010425480914FF22F7
:1043A0001332401C9142A1803ED0CB1FFF3BFFF750
:1043B000AFFB09060B0C0B120B180B1E0B002A008F
:1043C00021003000FCF736F916E02A002100300009
:1043D000FCF74CFA10E02A0021003000FCF74EFAFE
:1043E0000AE02A0021003000FCF73CF904E021003B
:1043F000104A300000F024F80400FFF797FB002873
:1044000011D10D48417801290DD100254570C520F5
:1044100080013018C56185614561300007498030F1
:10442000FCF770F93573200070BC08BC1847000019
:104430000281000002410000E079F0BF5C20000032
:1044400070B50E0005008C68100022D121210902F0
:104450006918CA79002A228814D0002A01D011488C
:1044600017E00022CA7110496918497C002905D05B
:1044700001290ED12800FCF765F90AE02800FCF7B5
:1044800059F906E0002A02D00122CA7101E005486C
:10449000401C020031002388280000F007F870BC9F
:1044A00008BC184706410000E020000070B5060077
:1044B00088680C0002804380FF2031001500103016
:1044C000FCF730FA01040848091430181E23C05EB6
:1044D000A2680423FCF732FA002800D0034D28001C
:1044E00070BC08BC18470000E020000007810000F5
:1044F000F8B50700886816000D0000240280022B22
:10450000438002D99B1E1C04240C3900FF200A3072
:10451000FCF708FA010408481E233818C05E091485
:10452000AA68A31DFCF70AFA002800D0034E300049
:10453000F8BC08BC18470000E0200000078100001C
:10454000FFB581B00AAEC0CE002523490400057333
:10455000457301206118087448742048832220188C
:10456000058045808580C580C52080012018856232
:10457000C562056392014563A2188563556395631F
:10458000C5618561456121200002201885720220E5
:104590008D83C8831049200084398030FCF7B2F83D
:1045A0002000FCF7A7F83022200002995030FCF7D9
:1045B00031F93022200003992030FCF72BF90498C0
:1045C000211D41C1064827700570457005B0F0BC3B
:1045D00008BC002018470000E02000006031000007
:1045E000E079F0BF5C009FE50020E0E3082080E573
:1045F00054109FE5043091E5083083E3043081E5F1
:104600000030A0E3083080E5082080E504C091E593
:1046100008C08CE304C081E5083080E5082080E50F
:1046200004C091E510C0CCE304C081E5083080E50A
:10463000082080E5042091E5022B82E3042081E537
:10464000083080E51EFF2FE1000300F8000600F8A7
:104650002C209FE524109FE50030E0E3000050E3AC
:1046600000C0A0E3083082E5000091E5020BC00322
:10467000020B8013000081E508C082E51EFF2FE1D8
:10468000000600F8000300F8F0472DE9B8D04DE22D
:104690000C508DE201A0A0E10070A0E30040A0E179
:1046A000CFF0FFEBDC609FE50000A0E3010080E2BB
:1046B000060050E1FCFFFFBA000000EFC9F0FFEB7D
:1046C000060050E30000001AFEFFFFEA8C008DE2B6
:1046D000C5F0FFEB0680A0E30090A0E3150000EA20
:1046E000B480CDE104108DE28C008DE2B690CDE176
:1046F000B840CDE1BDF0FFEB8020A0E30C108DE2CF
:104700008C008DE2BAF0FFEB000050E30600000AD7
:104710000000A0E3010080E2060050E1FCFFFFBAC8
:104720008C008DE2B0F0FFEB020000EAB200D5E1B0
:10473000010050E30300000A000057E30100001AE3
:10474000000054E3E5FFFF1A0400A0E3B000CDE150
:104750000200A0E3B200CDE18C008DE20D10A0E1DB
:10476000A2F0FFEB8C008DE2A2F0FFEB000054E31F
:104770000400D5150A00A0019FF0FFEBB8D08DE230
:10478000F047BDE81EFF2FE120A1070070402DE992
:104790000040A0E1000090E50050A0E3341090E557
:1047A000020A11E30250A0030D00000A021CA0E35C
:1047B0003C1080E5001094E5020AA0E33C0081E58E
:1047C000100094E571F1FFEB100094E56FF1FFEB41
:1047D000180094E51C1094E5B000D0E1000051E110
:1047E0000150A0330500A0E17040BDE81EFF2FE19D
:1047F00000009FE51EFF2FE13834F0BF00009FE569
:104800001EFF2FE11833F0BF00009FE51EFF2FE1D0
:104810005434F0BF00009FE51EFF2FE16434F0BF69
:1048200070402DE910608DE240C09FE5700096E871
:1048300000E09CE500E0C0E504009CE50000C1E567
:1048400008009CE50000C2E50400A0E30000C3E509
:104850000200A0E30000C4E514009FE5000085E528
:104860002500A0E3000086E57040BDE81EFF2FE1B3
:104870009834F0BF512500003C402DE90050A0E1E4
:104880000040A0E3840084E0800085E00010A0E305
:104890005DF1FFEB014084E20C0054E3F8FFFFBA46
:1048A0000000A0E35300C5E5B005C5E14800C5E53B
:1048B000C830A0E30020A0E35200C5E50C008DE85D
:1048C0000A30A0E30500A0E10210A0E34FF1FFEBE6
:1048D0003C40BDE81EFF2FE1342090E5303090E5EC
:1048E000241080E2030052E103C042E00030913521
:1048F0000030A02303309CE01000A0031EFF2F0116
:10490000083091E504C091E5000052E300109105E4
:1049100001104212011041020120A0E39C3121E06C
:10492000082081E50E21C0E50000A0E31EFF2FE175
:1049300070402DE9100080E3025BC0E31850C5E32E
:10494000050001E0D8109FE5D8C09FE51000D0E336
:1049500000E0E0E30040A0E31C00000A000052E396
:1049600008E08CE5382091E52E6A00E00620C201BF
:1049700006208211382081E508408CE5000053E3D1
:1049800008E08CE53C2091E5003AA0E1233AA0E163
:104990000320C201032082113C2081E508408CE500
:1049A00008E08CE5302091E5000AA0E1200AA0E1B2
:1049B000002082E1302081E508408CE508E08CE5AC
:1049C000342091E50000C2E1340081E508408CE527
:1049D00008E08CE5040091E5052AA0E1222AA0E187
:1049E0000200C0E1040081E508408CE508E08CE5A8
:1049F000100091E5100081E508408CE508E08CE5A9
:104A00001C0091E51C0081E508408CE508E08CE580
:104A1000280091E5280081E508408CE57040BDE85C
:104A20001EFF2FE1000600F8000300F81000C0E3AD
:104A300002CB80E35C009FE50020E0E308C08CE34C
:104A4000082080E550109FE5043091E5023603E030
:104A500022CA0CE003308CE1043081E50030A0E391
:104A6000083080E5082080E510C091E510C081E5A0
:104A7000083080E5082080E51CC091E51CC081E578
:104A8000083080E5082080E5282091E5282081E590
:104A9000083080E51EFF2FE1000300F8000600F853
:104AA00002CBC0E35C009FE50020E0E318C0CCE34C
:104AB000082080E550109FE5003091E5023603E0C4
:104AC00022CA0CE003308CE1003081E50030A0E325
:104AD000083080E5082080E50CC091E50CC081E538
:104AE000083080E5082080E518C091E518C081E510
:104AF000083080E5082080E5242091E5242081E528
:104B0000083080E51EFF2FE1000300F8000600F8E2
:104B100044209FE50010A0E30000A0E30130A0E3E3
:104B200000C192E700005CE313108111010080E2F4
:104B3000110050E3F9FFFF3A20009FE50020A0E3B9
:104B4000001080E5C02080E5082080E5C42080E5D5
:104B50000C009FE5060080E81EFF2FE14457F0BFE0
:104B6000000300F8B034F0BFF0412DE90040A0E1AF
:104B7000D000D0E10270A0E10160A0E1010050E3AB
:104B8000010070130050E0E31100000A020C84E2FF
:104B9000520080E21420A0E30610A0E1DDFBFFEB51
:104BA000250EA0E3B47080E10600A0E101F1FFEB67
:104BB000010050E30600001A4E02C4E51C109FE5F8
:104BC0000400A0E1FCF0FFEBD000D4E1F041BDE82F
:104BD0001EFF2FE10000E0E30050C4E5FAFFFFEA0A
:104BE000EC34F0BF10402DE90040A0E1D000D0E14E
:104BF0000020E0E3000050E3010070130A00000A07
:104C00004E02D4E5010050E30700001A000051E312
:104C100020109F0520109F150400A0E1E6F0FFEB97
:104C2000D000D4E11040BDE81EFF2FE10000E0E31A
:104C30000020C4E5FAFFFFEA9C35F0BF6C35F0BFF9
:104C400010402DE90040A0E1D000D0E10010E0E3E9
:104C5000000050E3010070130800000A4E02D4E582
:104C6000010050E30500001A1C109FE50400A0E1BC
:104C7000D1F0FFEBD000D4E11040BDE81EFF2FE1E2
:104C80000000E0E30010C4E5FAFFFFEA3C35F0BFA6
:104C9000F84F2DE9DC419FE50000A0E30170A0E39F
:104CA0004C0084E59EF0FFEB000050E35800000A42
:104CB000C4519FE50300A0E301BAA0E30000C4E5EE
:104CC0003CB085E5300095E5010A80E3300085E5DC
:104CD0000500A0E320EEFFEBA0119FE5006281E05C
:104CE0000C0096E50300C0E30C0086E5200094E587
:104CF00041104BE2019000E0D9F0FFEB241084E278
:104D00000900A0E1CBF0FFEB74719FE501A000E288
:104D1000080087E20080E0E368219FE5981000E149
:104D2000021081E1081087E5C40087E2981000E1D5
:104D3000FF1081E3C41087E5101094E5240084E29D
:104D4000C8F0FFEB0AA000E0C7F0FFEB101094E5FD
:104D5000240084E2C5F0FFEB0AA000E0C40087E273
:104D6000981000E1FF10C1E3C41087E5080087E256
:104D700014219FE5981000E1021001E0081087E57A
:104D8000BBF0FFEB241084E20900A0E1B0F0FFEBE0
:104D90000A7000E03CB085E5300095E5010AC0E30B
:104DA000300085E5000095E5010080E3000085E521
:104DB000000095E5020080E3000085E5000095E530
:104DC000040080E3000085E5000095E50A00C0E3EB
:104DD000000085E5000095E51400C0E3000085E5CE
:104DE000000095E50100C0E3000085E5021AA0E39C
:104DF0003C1085E50C0096E5010080E30C0086E59B
:104E00000100A0E34C0084E5240095E53C1085E515
:104E1000130000EA97F0FFEB000050E30D00000ADA
:104E20000200A0E30000C4E50400D4E50020A0E3F4
:104E3000241084E289F0FFEB015000E28AF0FFEBDE
:104E40000300D4E50020A0E3241084E283F0FFEB0C
:104E5000057000E0020000EA0100A0E30000C4E5E4
:104E600081F0FFEB0000A0E30000C4E50700A0E133
:104E7000F84FBDE81EFF2FE1D436F0BF000D00F85B
:104E8000000200F8000300F8FDFF01000200FEFF31
:104E900004E02DE5C4EDFFEB1D10A0E3910000E060
:104EA00014109FE5001091E5000181E0010C80E203
:104EB000F404D0E104E09DE41EFF2FE1F035F0BFE3
:104EC00014309FE5003080E510009FE5000081E58B
:104ED0000C009FE5000082E51EFF2FE1DC78F0BFAB
:104EE000D09A01C0E09A01C0FEB5040040690E00EE
:104EF000002500280DD0A069002802D1B068A0616B
:104F00006FE0E069002802D1B068E06169E0374DE8
:104F100067E0312080012718787B0028019004D1B8
:104F20002900300000F05AFA2EE0B1682000FCF7AA
:104F300041FA050055D121003000FCF743FA050085
:104F4000787B019988424CD0294961180291A321AC
:104F50004901671827496618002817D001283ED153
:104F6000B87D002834D001283BD1B07A002838D150
:104F7000212080012018426801218B02D2189172F1
:104F800041682000FCF726FA05002AE0B87D0028D9
:104F900002D0B07A002824D0174821182000FCF74E
:104FA00021FA05000120F0720220A070B87D0028CF
:104FB00008D10198022805D10023E05E029A292138
:104FC000FBF7BCFCB07A00280BD00020707208E020
:104FD0000023E05E029A2921FBF7B0FC01E0034DBB
:104FE0000B3D2800FEBC08BC1847000031800000C3
:104FF000701E01004016010050140000F3B581B08E
:10500000029904008E68334900206518A3212A887C
:1050100049016718A988002A1DD100291DD161699D
:1050200000291CD1B97D00291ED1307800280CD070
:105030002000FCF72FFA2000FCF734FA002811D1E9
:105040002000FCF737FA00280CD10122711C200047
:10505000FCF738FA04E0002901D0080000E0100055
:10506000002801D00121A170697A002900D01A48D6
:105070006169002901D01848093002000298210016
:10508000FCF728FA060012D1B87D002813D00128B9
:105090000DD121208001201841680127BA0289180A
:1050A0008F7241682000FCF795F906006F7230009E
:1050B000FEBC08BC1847312080012018407B012825
:1050C000F5D1064900236218E05E2921FBF736FC82
:1050D000EDE70000401601004A400000701E01008C
:1050E00038B52C48FEF71AFD040003D1012038BC66
:1050F00008BC1847284900206118A0700880488023
:105100008880A322C88052010872A2180123C872A5
:10511000137350739073D073C8231082538290829C
:105120002922D201A218D0621B4A48722032A2184A
:105130001070508088722000FCF744FA1549022054
:10514000383920800420611888621348C838201834
:105150000500FCF73FFA00208B225202810009195A
:105160008918401C0A288D61F8D32000FBF7A8FDA0
:10517000094800212838221834300092C82220180B
:105180000123FCF72BFA044824302018FCF7E2F93D
:105190000020ACE7781E010040160100F8B504239A
:1051A000CF5E0500080000244C2F12D016DC252FFE
:1051B00029D008DC3B496E180E2F33D0122F28D08F
:1051C000132F6BD068E0272F03D02A2F01D02C2F6C
:1051D00062D1210000F002F904005FE09A2F4FD065
:1051E0000BDC31495F2F51D0612F52D0642F53D146
:1051F0000A002900FCF706F9EEE79C2F43D09E2F0A
:105200004AD12A4C4AE0284A121F2900FCF70AF921
:10521000E2E780680088002801D0234CE41F0420C6
:10522000348015E080680088002801D01E4CA41F3F
:10523000A320400128187480807D00280AD001280E
:105240002CD11B4829182800FCF7E0F904000320A2
:10525000A87023E0317A01200027002903D037729B
:10526000F072AF7003E0A870F07A002816D01149F0
:1052700000236A18E85E6321FBF760FBF7720DE01C
:105280000A4C641E0AE0094CA41C07E0FCF7EAF88B
:10529000A2E7FCF7EFF89FE7044C0E3C2000F8BCB7
:1052A00008BC1847401601004D4000002E80000049
:1052B00054140000741E0100F8B50423CF5E0500ED
:1052C000080000244C2F10D014DC252F29D006DC38
:1052D0000E2F2FD0122F2AD0132F70D06DE0272F32
:1052E00003D02A2F01D02C2F67D1210000F076F8AF
:1052F000040064E034496E189A2F1ED00BDC334949
:105300005F2F54D0612F55D0642F56D10A00290049
:10531000FCF778F8ECE79C2F2BD09E2F4DD12C4C2E
:105320004DE02A4A121F2900FCF77CF8E0E7284CE0
:105330000B3C44E0264CE41E41E08068224900908A
:10534000008820316F18002806D0204C0420A41EAD
:105350000021A87079800AE01E4829182800FCF76F
:1053600019F904000220A870009840887880B48061
:1053700025E080680088002801D0144C641E317A32
:105380000120002905D000213172B172F072A9709C
:1053900003E0A870F07A0028E9D00F4900236A18CA
:1053A000E85E6321FBF7CAFA0021F172DFE7FCF740
:1053B00059F89DE7FCF75EF89AE7054C0E3C200093
:1053C000F8BC08BC18470000401601004D40000022
:1053D0002E80000050140000741E010070B50400FF
:1053E00080680D00002808D0FBF7A4FA0423E15ED2
:1053F000083444CC3300FBF7A1FA280070BC08BC89
:1054000018470000A3225201821810B4137BD27BEC
:10541000022B0BD1002A05D0032A05D0062A0CD175
:1054200011490AE0114908E0114906E0002A08D0B4
:10543000032A08D0062A00D10E4900228B246402D8
:1054400003E00D49F9E70D49F7E793001B181B1915
:1054500099619E31521C092AF7D309494118001954
:10546000C16310BC70470000165DF0BF4E73F0BF03
:105470003268F0BF8857F0BFC06DF0BFA462F0BFC4
:1054800078150100FFB50E001400002583B01F4FF2
:1054900002952DE001784900795A890708D56946B7
:1054A000FCF718F9002803D06846FCF71BF90290B6
:1054B000316808784200BA5AD20513D5144B00213E
:1054C00002E0491C092903DA8A009A5C8242F8D179
:1054D0008800C2183100029B2000FCF70BF92D1840
:1054E000241805E0481C306008782070641C6D1C8E
:1054F000300003C8884202D803998D42CADB0020DD
:105500002070280007B0F0BC08BC1847706F01C0BD
:10551000146D01C0030052E33D00009A03C010E285
:105520000800000A0130D1E402005CE30C2082E0B4
:1055300001C0D1940130C0E40130D134042042E2F2
:1055400001C0C0940130C034033011E21D00000AD4
:10555000042052E22E00003A03C031E7020053E378
:105560000800000A0F00008A2C34A0E104C0B1E555
:10557000042052E20C3C83E1043080E4F9FFFF2A6E
:10558000011081E2220000EA2C38A0E104C0B1E55C
:10559000042052E20C3883E1043080E4F9FFFF2A52
:1055A000021081E21A0000EA2C3CA0E104C0B1E53F
:1055B000042052E20C3483E1043080E4F9FFFF2A36
:1055C000031081E2120000EA10402DE9202052E28F
:1055D0000500003A1850B1281850A0281850B128DA
:1055E0001850A02820205222F9FFFF2A02CEB0E155
:1055F0001850B1281850A0281800B1481800A04829
:105600001040BDE802CFB0E1043091240430802482
:105610001EFF2F01822FB0E10120D1440130D1249F
:1056200001C0D1240120C0440130C02401C0C024E5
:105630001EFF2FE10020A0E3040051E30800003A20
:1056400003C010E20C00000A04C06CE202005CE33C
:105650000120C0E40120C0A40120C0C40C1041E01E
:10566000050000EA81CFB0E10120C0240120C02460
:105670000120C0441EFF2FE10020A0E300402DE9DF
:105680000230A0E102C0A0E102E0A0E1201051E25E
:105690000C50A0280C50A02820105122FBFFFF2AFC
:1056A000011EB0E10C50A0280C00A0480040BDE84D
:1056B0000111B0E1042080241EFF2F010120C0440D
:1056C0000120C044400411E30120C0141EFF2FE15B
:1056D000030010E3030011031700001A00402DE936
:1056E00050E29FE5042090E4043091E40EC042E0D3
:1056F00002C0CCE18EC31CE003005201F8FFFF0A98
:105700000040BDE8030CA0E1020C50E0FF0E1C03BA
:105710000700001A0308A0E1020850E0FF0C1C0378
:105720000300001A0304A0E1020450E0FF081C0378
:10573000020053006000A0111EFF2FE10120D0E401
:105740000130D1E4010052E3030052210400001AA9
:105750000120D0E40130D1E4010052E303005221E2
:10576000F5FFFF0A030042E01EFF2FE1013080E158
:10577000030013E304E02DE50020A0E10B00001A74
:10578000B0C19FE5043091E40CE043E003E0CEE1DA
:105790008C031EE104308204F9FFFF0AFF1013E2BC
:1057A0000110C2E42334A011FBFFFF1A070000EA36
:1057B0000130D1E40130C2E4000053E30300000AE9
:1057C0000130D1E40130C2E4000053E3F7FFFF1AD7
:1057D0000040BDE81EFF2FE101C080E2030010E39E
:1057E0000500000A0110D0E4000051E30C00400065
:1057F0001EFF2F01030010E3F9FFFF1A34219FE57C
:10580000041090E4023041E00130C3E1820313E16F
:10581000FAFFFF0A0C0040E0FF0011E30300400222
:105820001EFF2F01FF0C11E3020040021EFF2F019B
:10583000FF0811E3010040021EFF2FE1013080E16B
:10584000030013E304E02DE50D00001AE4C09FE51A
:10585000020000EA040080E2041081E2042042E237
:10586000040052E30030902500E091250E00532102
:105870000300001A0CE043E00330CEE18C0313E197
:10588000F3FFFF0A000052E30000A0030700000A34
:105890000130D0E401C0D1E4010053E30C005321F6
:1058A0000100001A012052E2F8FFFF1A0C0043E049
:1058B0000040BDE81EFF2FE1040052E301308021CB
:1058C000030013230900001A043090E404C091E49B
:1058D0000C0053E10200001A042042E2040052E3EB
:1058E000F8FFFF2A0C0053E104004012041041129B
:1058F000000052E30000A0031EFF2F01010012E38D
:10590000012082120300001A0130D0E401C0D1E46A
:105910000C0053E10500001A0130D0E401C0D1E4CD
:105920000C0053E10100001A022052E2F5FFFF1AB9
:105930000C0043E01EFF2FE101010101BC02F0BF9A
:10594000B802F0BF000000000000000000000000EE
:10595000000000000000000000000000B402F0BFE2
:10596000B002F0BFB002F0BF000000000000000075
:105970000000000000000000000000000000000027
:1059800001000000640064006400000019000400CD
:1059900000006400AC0DFA003C0FE803AC0D94115C
:1059A0003C00410041005700480042003D003C00DF
:1059B0004F004900120000005A000A001C0090012C
:1059C00014058C0AF40114004600F92AE9030100C9
:1059D000000000000000920246006E00A000B4002B
:1059E000C800FA00400104010E01C01258021E0056
:1059F0005000C80020036400000001000A000500F8
:105A00009C04580226009CFF6AFF0100C800640045
:105A10009600FA003C00640090010000681001004C
:105A20000000640057005000000046001400000011
:105A30006B00AC0D1801740E9001800C1013410026
:105A40003A004100570044003C003C003D00550036
:105A50000A00050000005F000A001600F401E803D8
:105A6000FC08E80300005A0033268A020100020005
:105A700000000000B6013C006E006E00E60054011C
:105A8000FA004001040104017E13B004320050000A
:105A900090012003640000000000020005009C0447
:105AA0001C021E00000000000000C80064003C0052
:105AB0003C003C003C0090010000941100000000FC
:105AC0006400B4006400000014000A0000006400D8
:105AD000CC10A0005C125802681024134900410049
:105AE0004600770067004400290046006A001E0057
:105AF0000F0032005500000023007C014C04C40953
:105B0000580214005000AC71D4490100010000009B
:105B10000000B6015000620091002C015802FA000A
:105B20004001040172015C12580214001E00A00022
:105B300020036400000003001700050046055E0115
:105B40002300B400B4000700C2019CFFDC00C201C6
:105B50006400CC005E012800941100003C00640049
:105B6000DC00640000003C000500000064006211DD
:105B70000401561358026211241340003B004000F8
:105B80005700490042002D003A0053003C0012002B
:105B900032001E00010020005E01E803DC05BC02AB
:105BA0000000410010724C040100060000000000DB
:105BB000B601780082008C00E6005401FA00DC0097
:105BC000FA00C800C012B00414005000640084033E
:105BD0006E00000001000800050000058A021E009A
:105BE000000000000000FA009CFF3C003C003C006C
:105BF0006400900100002A120100410064006E0060
:105C000064001E0014000A0000006400AC0DF000E7
:105C1000D80EB40004102413410034004100570092
:105C200049003E0041003E004D006400090046006E
:105C300032000A0016009001E803B004BC02000024
:105C400032005C2BF4010100040000000000B601EA
:105C500046005A008200B400C800FA004001040166
:105C60000E01C01258020A005000640020036400B4
:105C7000000001000A0005009C041C021E00000038
:105C800000000000900164003C003C003C003C002F
:105C90009001000094110000320041001D017800C5
:105CA000000028000A00000060005C12F401701778
:105CB00070176211C01241003C00410057005700AC
:105CC000490039003D0040004B000A004B00320003
:105CD000140014002C01E8033408BC0200001E006C
:105CE0001C2540060100050000000000B6015F0011
:105CF0008200A000B400C800FA00400104010E01B7
:105D0000C012B0040A0050006400200364000000C8
:105D100000000A0005009C04B6031E0000000000FD
:105D200000002C012C013C003C003C003C00900198
:105D300000005C1201001E0064006E0064000000A0
:105D400014000A0000006400AC0D5E019411F4011F
:105D5000480DC01241003700410057004800430081
